:020000040000FA
:040000000000E82BE9
:040004000034003490
:080008000528831203130B1DF0
:1000100034280B118B125908B5001730B50203199B
:10002000122826285708B5000C30B50203192628D7
:100030005708B5000D30B5020319C52BD70A57086C
:10004000B5000B30B5020319AE29D901D90A5908F8
:10005000B5002330B5020319B82B831203138101B5
:10006000831203138B16E52B8B1CE52B8B100B12C5
:100070005708B5000030B502031980285708B500AD
:100080000130B502031988285708B5000230B502BF
:1000900003199D285708B5000330B5020319BA2883
:1000A0005708B5000430B5020319DE285708B5001B
:1000B0000530B502031909295708B5000630B50205
:1000C000031925295708B5000730B50203192D2952
:1000D0005708B5000830B502031942295708B50082
:1000E0000930B50203195F295708B5000A30B50277
:1000F000031983295708B5000C30B5020319C32B27
:10010000C70A4708B5000730B5020319C701DE2B3F
:10011000C80A4708B5000630B502031996284808F2
:10012000B5000A30B5020318C801DE2B4808B50037
:100130000630B5020318C801DE2BC90A4708B5000E
:100140000630B5020319A528B3284808B5000530C4
:10015000B5020319AC28B3284908B5000630B5022A
:100160000318C901DE2B4908B5000A30B50203188F
:10017000C901DE2BD00A4708B5000630B5020319C5
:10018000C228D7284808B5000530B5020319C92888
:10019000D7284908B5000530B5020319D028D7285B
:1001A0005008B5000430B5020318D001DE2B50080A
:1001B000B5000A30B5020318D001DE2BD10A47087A
:1001C000B5000630B5020319E62802294808B50033
:1001D0000530B5020319ED2802294908B50005309C
:1001E000B5020319F42802295008B5000330B502FE
:1001F0000319FB2802295108B5000630B50203187F
:10020000D101DE2B5108B5000A30B5020318D10127
:10021000DE2B3408B5002B30B50203191B29340836
:10022000B5002F30B50203191E293408B50025305A
:10023000B502031921292F30B400DE2B2530B4007C
:10024000DE2B2B30B400DE2BDE2BD20A5208B50099
:100250000730B5020319D201DE2BD30A5208B500CC
:100260000630B50203193B295308B5000A30B50220
:100270000318D301DE2B5308B5000630B50203186E
:10028000D301DE2BD40A5208B5000630B50203199B
:100290004A2958295308B5000530B50203195129D8
:1002A00058295408B5000630B5020318D401DE2BD6
:1002B0005408B5000A30B5020318D401DE2BD50A64
:1002C0005208B5000630B502031967297C29530886
:1002D000B5000530B50203196E297C295408B50014
:1002E0000530B502031975297C295508B50004307D
:1002F000B5020318D501DE2B5508B5000A30B5024A
:100300000318D501DE2BD60A5208B5000630B50217
:1003100003198B29A7295308B5000530B502031925
:100320009229A7295408B5000530B5020319992967
:10033000A7295508B5000330B5020319A029A7293C
:100340005608B5000630B5020318D601DE2B560854
:10035000B5000A30B5020318D601DE2BD901D70A41
:100360000130D800831203138101831203138B160B
:100370003408B5002B30B5020319CA293408B5007A
:100380002F30B50203191F2A3408B5002530B502F5
:100390000319F82A51085607B5000A303502031828
:1003A000D5293508C100E001DA290A303502C1003B
:1003B0000130E000500855076007E001B5000A3041
:1003C00035020318E6293508C000EB290A3035024A
:1003D000C0000130E000490854076007E001B500A3
:1003E0000A3035020318F7293508B900FC290A300C
:1003F0003502B9000130E000480853076007E0010A
:10040000B5000A3035020318082A3508B8000D2A4D
:100410000A303502B7000130E00047085207600794
:10042000E001B5000A3035020318192A3508B70073
:10043000DE2B0A303502B7000130B600DE2B01306A
:10044000E7005108C6005008C5004908C400480824
:10045000C3004708C200031452084202E200031C12
:10046000F72A031453084302E300031C382A422AE4
:1004700062080319F72AE20343080A3EB50053084D
:100480003502E300031454084402E400031C492A23
:10049000602A63080319542AE30344080A3EB5009E
:1004A00054083502E400602A62080319F72AE203BF
:1004B0000930E30044080A3EB50054083502E40060
:1004C000031455084502E500031C672A8D2A6408B9
:1004D0000319722AE40345080A3EB500550835029F
:1004E000E5008D2A630803197F2AE3030930E4003D
:1004F00045080A3EB50055083502E5008D2A620818
:100500000319F72AE2030930E3000930E400450843
:100510000A3EB50055083502E500031456084602A8
:10052000E600031C942ACB2A650803199F2AE503D9
:1005300046080A3EB50056083502E600CB2A640894
:100540000319AC2AE4030930E50046080A3EB50069
:1005500056083502E600CB2A63080319BB2AE303D9
:100560000930E4000930E50046080A3EB5005608A7
:100570003502E600CB2A62080319F72AE2030930A4
:10058000E3000930E4000930E50046080A3EB50002
:1005900056083502E6006608C6006508C50064080E
:1005A000C4006308C3006208C200C10A03140A3011
:1005B0004102031C2B2ADC2AC100C00A03140A30A2
:1005C0004002031C2B2AE42AC000B90A03140A3093
:1005D0003902031C2B2AEC2AB900B80A03140A308A
:1005E0003802031C2B2AF42AB800B70A2B2ADE2B68
:1005F0005108C6005008C5004908C4004808C30097
:100600004708C200031452084202B700031CAD2B76
:10061000031453084302B800031C0F2B192B37088F
:100620000319AD2BB70343080A3EB5005308350242
:10063000B800031454084402B900031C202B372BC4
:10064000380803192B2BB80344080A3EB500540898
:100650003502B900372B37080319AD2BB703093022
:10066000B80044080A3EB50054083502B900031426
:1006700055084502C000031C3E2B642B39080319A2
:10068000492BB90345080A3EB50055083502C0009C
:10069000642B38080319562BB8030930B9004508F4
:1006A0000A3EB50055083502C000642B370803190F
:1006B000AD2BB7030930B8000930B90045080A3E30
:1006C000B50055083502C000031456084602C100A3
:1006D000031C6B2BA22B40080319762BC003460882
:1006E0000A3EB50056083502C100A22B390803198D
:1006F000832BB9030930C00046080A3EB5005608EE
:100700003502C100A22B38080319922BB803093017
:10071000B9000930C00046080A3EB5005608350247
:10072000C100A22B37080319AD2BB7030930B8005D
:100730000930B9000930C00046080A3EB500560825
:100740003502C1004108C6004008C5003908C40090
:100750003808C3003708C200022B4608C10045080C
:10076000C0004408B9004308B8004208B700DE2BB7
:100770000230D800D70AD9018312031381018312F2
:1007800003138B16DE2BE80ADE2B0030D800E700BF
:10079000D901E801E00183120313810183120313DD
:1007A0008B166808B5000130B5020319D82BDB2B76
:1007B0000530D700DE2B0030D700DE2BD9018312A5
:1007C00003138101831203130B1683120313090011
:1007D000D901D80183160313061483160313880165
:1007E000831203138B170B168B1683160313073014
:1007F0008100352CF930F0000000F00BFC2B0800D4
:10080000F100FA23F10B012C08000815FA23081156
:10081000FA230800F500F0398800F418881405243C
:10082000FA23F50E7508F0398800F41888140524A9
:10083000FA23080064300024F030F40030308800DF
:100840000524053000240524FA2305240812052474
:1008500028300A2408300A2401300A2406300A24E9
:1008600080300A240C300A2408001A248030F41046
:100870000A240301C701C801C901D001D101030144
:1008800003010301030103012B30B4000030D70042
:10089000831203135808B5000130B5020319B62CB2
:1008A0005808B5000230B50203194E2D572C803080
:1008B000F4100A244530F4140A244E30F4140A24A7
:1008C0005430F4140A244530F4140A245230F41439
:1008D0000A242030F4140A244F30F4140A2450302F
:1008E000F4140A244530F4140A245230F4140A246F
:1008F0004130F4140A245430F4140A244930F41416
:100900000A244F30F4140A244E30F4140A24C03060
:10091000F4100A244708303EF4140A244808303EF4
:10092000F4140A244908303EF4140A245008303ED6
:10093000F4140A245108303EF4140A243408F41440
:100940000A245208303EF4140A245308303EF414AA
:100950000A245408303EF4140A245508303EF41496
:100960000A245608303EF4140A244A2C8030F4102D
:100970000A245230F4140A244530F4140A24533063
:10098000F4140A245530F4140A244C30F4140A24C4
:100990005430F4140A243A30F4140A242030F414A5
:1009A0000A242030F4140A242030F4140A242030BD
:1009B000F4140A242030F4140A242030F4140A24F5
:1009C0002030F4140A242030F4140A242030F414C3
:1009D0000A24C030F4100A243608303EF4140A24E5
:1009E0003708303EF4140A243808303EF4140A2440
:1009F0003908F414303E0A244008303EF4140A2426
:100A00004108303EF4140A246708B5000130B502ED
:100A100003192A2D0B2D2030F4140A242030F4144D
:100A20000A242030F4140A242030F4140A2420303C
:100A3000F4140A242030F4140A242030F4140A2474
:100A40002030F4140A242030F4140A242030F41442
:100A50000A244A2C7230F4140A244208303EF4145A
:100A60000A244308303EF4140A244408F414303EA7
:100A70000A244508303EF4140A244608303EF41493
:100A80000A242030F4140A242030F4140A242030DC
:100A9000F4140A242030F4140A244A2C8030F41070
:100AA0000A244B30F4140A244530F4140A24453047
:100AB000F4140A245030F4140A243F30F4140A24A5
:100AC0005B30F4140A243130F4140A243A30F4145C
:100AD0000A245930F4140A242C30F4140A24203047
:100AE000F4140A243230F4140A243A30F4140A2498
:100AF0004E30F4140A245D30F4140A242030F41427
:040B00000A244A2C4D
:02400E00313748
:00000001FF
